{
  "abi": [
    {
      "inputs": [
        {
          "internalType": "uint256",
          "name": "depositInterval",
          "type": "uint256"
        },
        {
          "internalType": "uint256",
          "name": "withdrawInterval",
          "type": "uint256"
        },
        {
          "internalType": "uint256",
          "name": "actionWindow",
          "type": "uint256"
        }
      ],
      "stateMutability": "nonpayable",
      "type": "constructor"
    },
    {
      "inputs": [],
      "name": "FundsStorage__ActionWindowCannotBeZero",
      "type": "error"
    },
    {
      "inputs": [],
      "name": "FundsStorage__DepositIntervalCannotBeZero",
      "type": "error"
    },
    {
      "inputs": [],
      "name": "FundsStorage__DepositMustBeMoreThanZero",
      "type": "error"
    },
    {
      "inputs": [],
      "name": "FundsStorage__DepositWindowNotOpen",
      "type": "error"
    },
    {
      "inputs": [],
      "name": "FundsStorage__UserDoesNotHaveAnyFundsDeposited",
      "type": "error"
    },
    {
      "inputs": [],
      "name": "FundsStorage__WithdrawIntervalCannotBeZero",
      "type": "error"
    },
    {
      "inputs": [],
      "name": "FundsStorage__WithdrawWindowNotOpen",
      "type": "error"
    },
    {
      "anonymous": false,
      "inputs": [
        {
          "indexed": true,
          "internalType": "address",
          "name": "user",
          "type": "address"
        },
        {
          "indexed": true,
          "internalType": "uint256",
          "name": "amount",
          "type": "uint256"
        }
      ],
      "name": "FundsDeposited",
      "type": "event"
    },
    {
      "anonymous": false,
      "inputs": [
        {
          "indexed": true,
          "internalType": "address",
          "name": "user",
          "type": "address"
        },
        {
          "indexed": true,
          "internalType": "uint256",
          "name": "amount",
          "type": "uint256"
        }
      ],
      "name": "FundsWithdrawn",
      "type": "event"
    },
    {
      "anonymous": false,
      "inputs": [
        {
          "indexed": true,
          "internalType": "address",
          "name": "previousOwner",
          "type": "address"
        },
        {
          "indexed": true,
          "internalType": "address",
          "name": "newOwner",
          "type": "address"
        }
      ],
      "name": "OwnershipTransferred",
      "type": "event"
    },
    {
      "anonymous": false,
      "inputs": [
        {
          "indexed": true,
          "internalType": "uint256",
          "name": "newDepositInterval",
          "type": "uint256"
        },
        {
          "indexed": true,
          "internalType": "uint256",
          "name": "newWithdrawInterval",
          "type": "uint256"
        },
        {
          "indexed": true,
          "internalType": "uint256",
          "name": "newActionWindow",
          "type": "uint256"
        },
        {
          "indexed": false,
          "internalType": "uint256",
          "name": "newStartTime",
          "type": "uint256"
        }
      ],
      "name": "TimeIntervalsUpdated",
      "type": "event"
    },
    {
      "inputs": [],
      "name": "depositFunds",
      "outputs": [],
      "stateMutability": "payable",
      "type": "function"
    },
    {
      "inputs": [],
      "name": "getActionTimeInterval",
      "outputs": [
        {
          "internalType": "uint256",
          "name": "actionWindow",
          "type": "uint256"
        }
      ],
      "stateMutability": "view",
      "type": "function"
    },
    {
      "inputs": [],
      "name": "getDepositTimeInterval",
      "outputs": [
        {
          "internalType": "uint256",
          "name": "depositTimeInterval",
          "type": "uint256"
        }
      ],
      "stateMutability": "view",
      "type": "function"
    },
    {
      "inputs": [],
      "name": "getTimeUntilDepositWindow",
      "outputs": [
        {
          "internalType": "uint256",
          "name": "",
          "type": "uint256"
        }
      ],
      "stateMutability": "view",
      "type": "function"
    },
    {
      "inputs": [],
      "name": "getTimeUntilWithdrawWindow",
      "outputs": [
        {
          "internalType": "uint256",
          "name": "",
          "type": "uint256"
        }
      ],
      "stateMutability": "view",
      "type": "function"
    },
    {
      "inputs": [
        {
          "internalType": "address",
          "name": "userAddress",
          "type": "address"
        }
      ],
      "name": "getUserBalance",
      "outputs": [
        {
          "internalType": "uint256",
          "name": "userBalance",
          "type": "uint256"
        }
      ],
      "stateMutability": "view",
      "type": "function"
    },
    {
      "inputs": [],
      "name": "getWithdrawTimeInterval",
      "outputs": [
        {
          "internalType": "uint256",
          "name": "withdrawTimeInterval",
          "type": "uint256"
        }
      ],
      "stateMutability": "view",
      "type": "function"
    },
    {
      "inputs": [],
      "name": "owner",
      "outputs": [
        {
          "internalType": "address",
          "name": "",
          "type": "address"
        }
      ],
      "stateMutability": "view",
      "type": "function"
    },
    {
      "inputs": [],
      "name": "renounceOwnership",
      "outputs": [],
      "stateMutability": "nonpayable",
      "type": "function"
    },
    {
      "inputs": [
        {
          "internalType": "uint256",
          "name": "newDepositInterval",
          "type": "uint256"
        },
        {
          "internalType": "uint256",
          "name": "newWithdrawInterval",
          "type": "uint256"
        },
        {
          "internalType": "uint256",
          "name": "newActionWindow",
          "type": "uint256"
        }
      ],
      "name": "setTimeIntervals",
      "outputs": [],
      "stateMutability": "nonpayable",
      "type": "function"
    },
    {
      "inputs": [
        {
          "internalType": "address",
          "name": "newOwner",
          "type": "address"
        }
      ],
      "name": "transferOwnership",
      "outputs": [],
      "stateMutability": "nonpayable",
      "type": "function"
    },
    {
      "inputs": [
        {
          "internalType": "address",
          "name": "newOwner",
          "type": "address"
        }
      ],
      "name": "transferOwnershipOfFundsStorageContract",
      "outputs": [],
      "stateMutability": "nonpayable",
      "type": "function"
    },
    {
      "inputs": [],
      "name": "withdrawFunds",
      "outputs": [],
      "stateMutability": "nonpayable",
      "type": "function"
    }
  ],
  "bytecode": {
    "object": "0x608060405234801561001057600080fd5b5060405161093238038061093283398101604081905261002f91610107565b600160005561003d336100b5565b8260000361005e57604051638f695c7160e01b815260040160405180910390fd5b8160000361007f57604051632070dded60e01b815260040160405180910390fd5b806000036100a057604051630775c4d960e11b815260040160405180910390fd5b42600355600492909255600555600655610135565b600180546001600160a01b038381166001600160a01b0319831681179093556040519116919082907f8be0079c531659141344cd1fd0a4f28419497f9722a3daafe3b4186f6b6457e090600090a35050565b60008060006060848603121561011c57600080fd5b8351925060208401519150604084015190509250925092565b6107ee806101446000396000f3fe6080604052600436106100c25760003560e01c80638c9eb7991161007f578063ca10248611610059578063ca102486146101e3578063e2c41dbc146101f8578063e4058be014610200578063f2fde38b1461021557600080fd5b80638c9eb7991461017b5780638da5cb5b1461019b578063ba3bd7e1146101c357600080fd5b80631b8e8aab146100c757806324600fc3146100ef57806347734892146101065780635ea12cc81461013c5780636177c44814610151578063715018a614610166575b600080fd5b3480156100d357600080fd5b506100dc610235565b6040519081526020015b60405180910390f35b3480156100fb57600080fd5b50610104610278565b005b34801561011257600080fd5b506100dc6101213660046106f8565b6001600160a01b031660009081526002602052604090205490565b34801561014857600080fd5b506005546100dc565b34801561015d57600080fd5b506004546100dc565b34801561017257600080fd5b506101046103c9565b34801561018757600080fd5b506101046101963660046106f8565b6103db565b3480156101a757600080fd5b506001546040516001600160a01b0390911681526020016100e6565b3480156101cf57600080fd5b506101046101de366004610728565b6103ef565b3480156101ef57600080fd5b506100dc61045c565b610104610487565b34801561020c57600080fd5b506006546100dc565b34801561022157600080fd5b506101046102303660046106f8565b610578565b60008060045460035442610249919061076a565b6102539190610783565b600454610260919061076a565b9050600654811161027357600091505090565b919050565b6102806105f3565b600060035442610290919061076a565b90506005548110156102b557604051633b04d57560e01b815260040160405180910390fd5b6000600554826102c59190610783565b905060065481106102e957604051633b04d57560e01b815260040160405180910390fd5b3360009081526002602052604081205490036103185760405163f477f98960e01b815260040160405180910390fd5b33600081815260026020526040808220805490839055905190929083908381818185875af1925050503d806000811461036d576040519150601f19603f3d011682016040523d82523d6000602084013e610372565b606091505b505090508061038057600080fd5b336000818152600260205260408082205490519092917feaff4b37086828766ad3268786972c0cd24259d4c87a80f9d3963a3c3d999b0d91a3505050506103c76001600055565b565b6103d161064c565b6103c760006106a6565b6103e361064c565b6103ec81610578565b50565b6103f761064c565b6103ff6105f3565b6004839055600582905560068190554260038190556040519081528190839085907f45231cea959e9ee1a78627ebdc11ba3a7286f719d52159e6274f1bcfa55e3a8a9060200160405180910390a46104576001600055565b505050565b60008060055460035442610470919061076a565b61047a9190610783565b600554610260919061076a565b600060035442610497919061076a565b90506004548110156104bc5760405163746b38a760e11b815260040160405180910390fd5b6000600454826104cc9190610783565b905060065481106104f05760405163746b38a760e11b815260040160405180910390fd5b6104f86105f3565b3460000361051957604051630c08bf6160e21b815260040160405180910390fd5b33600090815260026020526040812080543492906105389084906107a5565b9091555050604051349033907f543ba50a5eec5e6178218e364b1d0f396157b3c8fa278522c2cb7fd99407d47490600090a36105746001600055565b5050565b61058061064c565b6001600160a01b0381166105ea5760405162461bcd60e51b815260206004820152602660248201527f4f776e61626c653a206e6577206f776e657220697320746865207a65726f206160448201526564647265737360d01b60648201526084015b60405180910390fd5b6103ec816106a6565b6002600054036106455760405162461bcd60e51b815260206004820152601f60248201527f5265656e7472616e637947756172643a207265656e7472616e742063616c6c0060448201526064016105e1565b6002600055565b6001546001600160a01b031633146103c75760405162461bcd60e51b815260206004820181905260248201527f4f776e61626c653a2063616c6c6572206973206e6f7420746865206f776e657260448201526064016105e1565b600180546001600160a01b038381166001600160a01b0319831681179093556040519116919082907f8be0079c531659141344cd1fd0a4f28419497f9722a3daafe3b4186f6b6457e090600090a35050565b60006020828403121561070a57600080fd5b81356001600160a01b038116811461072157600080fd5b9392505050565b60008060006060848603121561073d57600080fd5b505081359360208301359350604090920135919050565b634e487b7160e01b600052601160045260246000fd5b8181038181111561077d5761077d610754565b92915050565b6000826107a057634e487b7160e01b600052601260045260246000fd5b500690565b8082018082111561077d5761077d61075456fea26469706673582212203c377d51c202c8dcf0da50ed03f894384299bfd8e0a4f6168fa17f649452a02864736f6c63430008130033",
    "linkReferences": {}
  },
  "methodIdentifiers": {
    "depositFunds()": "e2c41dbc",
    "getActionTimeInterval()": "e4058be0",
    "getDepositTimeInterval()": "6177c448",
    "getTimeUntilDepositWindow()": "1b8e8aab",
    "getTimeUntilWithdrawWindow()": "ca102486",
    "getUserBalance(address)": "47734892",
    "getWithdrawTimeInterval()": "5ea12cc8",
    "owner()": "8da5cb5b",
    "renounceOwnership()": "715018a6",
    "setTimeIntervals(uint256,uint256,uint256)": "ba3bd7e1",
    "transferOwnership(address)": "f2fde38b",
    "transferOwnershipOfFundsStorageContract(address)": "8c9eb799",
    "withdrawFunds()": "24600fc3"
  },
  "id": 23
}